:020000020000FC
:1000000000C00FEF0DBF18E01EBF00E800936100B5
:1000100003E0009361000FE004B905B900EF0AB9ED
:100020000BB90FE007B9259A24982C9A5298539847
:100030005A9A5B9A3C983D98449A459A10E020E081
:100040000E9440000E94480005B1007F012B05B9C5
:100050000BB10F70322F3295032B0BB91C99F0CFD7
:100060000E943300EDCF120F012F0F7008B910F46A
:100070002D9A01C02D980E946E000E948300089561
:1000800039B132FF0E94500033FF0E94570008959B
:1000900036B135FF0E945F0034FF0E94660008956C
:1000A0000E946E0013951F700E94730008950E94B5
:1000B0006E001A950AF41FE00E94730008950E94D2
:1000C0006E0023952F700E947B0008950E946E00A1
:1000D0002A950AF42FE00E947B0008954FEF4A957D
:1000E0004030E9F7089539B132FFFDCF33FFFBCF40
:1000F0000E946E00089536B135FFFDCF34FFFBCF6F
:0C0100000E946E0008951C990895FDCF28
:00000001FF
